{
  "contractName": "RequestToken",
  "abi": [
    {
      "inputs": [
        {
          "internalType": "address",
          "name": "_serverAccount",
          "type": "address"
        }
      ],
      "stateMutability": "nonpayable",
      "type": "constructor"
    },
    {
      "anonymous": false,
      "inputs": [
        {
          "indexed": true,
          "internalType": "address",
          "name": "owner",
          "type": "address"
        },
        {
          "indexed": true,
          "internalType": "address",
          "name": "approved",
          "type": "address"
        },
        {
          "indexed": true,
          "internalType": "uint256",
          "name": "tokenId",
          "type": "uint256"
        }
      ],
      "name": "Approval",
      "type": "event"
    },
    {
      "anonymous": false,
      "inputs": [
        {
          "indexed": true,
          "internalType": "address",
          "name": "owner",
          "type": "address"
        },
        {
          "indexed": true,
          "internalType": "address",
          "name": "operator",
          "type": "address"
        },
        {
          "indexed": false,
          "internalType": "bool",
          "name": "approved",
          "type": "bool"
        }
      ],
      "name": "ApprovalForAll",
      "type": "event"
    },
    {
      "anonymous": false,
      "inputs": [
        {
          "indexed": true,
          "internalType": "address",
          "name": "from",
          "type": "address"
        },
        {
          "indexed": true,
          "internalType": "address",
          "name": "to",
          "type": "address"
        },
        {
          "indexed": true,
          "internalType": "uint256",
          "name": "tokenId",
          "type": "uint256"
        }
      ],
      "name": "Transfer",
      "type": "event"
    },
    {
      "inputs": [
        {
          "internalType": "address",
          "name": "to",
          "type": "address"
        },
        {
          "internalType": "uint256",
          "name": "tokenId",
          "type": "uint256"
        }
      ],
      "name": "approve",
      "outputs": [],
      "stateMutability": "nonpayable",
      "type": "function"
    },
    {
      "inputs": [
        {
          "internalType": "address",
          "name": "owner",
          "type": "address"
        }
      ],
      "name": "balanceOf",
      "outputs": [
        {
          "internalType": "uint256",
          "name": "",
          "type": "uint256"
        }
      ],
      "stateMutability": "view",
      "type": "function"
    },
    {
      "inputs": [
        {
          "internalType": "uint256",
          "name": "tokenId",
          "type": "uint256"
        }
      ],
      "name": "getApproved",
      "outputs": [
        {
          "internalType": "address",
          "name": "",
          "type": "address"
        }
      ],
      "stateMutability": "view",
      "type": "function"
    },
    {
      "inputs": [
        {
          "internalType": "address",
          "name": "owner",
          "type": "address"
        },
        {
          "internalType": "address",
          "name": "operator",
          "type": "address"
        }
      ],
      "name": "isApprovedForAll",
      "outputs": [
        {
          "internalType": "bool",
          "name": "",
          "type": "bool"
        }
      ],
      "stateMutability": "view",
      "type": "function"
    },
    {
      "inputs": [],
      "name": "name",
      "outputs": [
        {
          "internalType": "string",
          "name": "",
          "type": "string"
        }
      ],
      "stateMutability": "view",
      "type": "function"
    },
    {
      "inputs": [
        {
          "internalType": "uint256",
          "name": "tokenId",
          "type": "uint256"
        }
      ],
      "name": "ownerOf",
      "outputs": [
        {
          "internalType": "address",
          "name": "",
          "type": "address"
        }
      ],
      "stateMutability": "view",
      "type": "function"
    },
    {
      "inputs": [
        {
          "internalType": "address",
          "name": "from",
          "type": "address"
        },
        {
          "internalType": "address",
          "name": "to",
          "type": "address"
        },
        {
          "internalType": "uint256",
          "name": "tokenId",
          "type": "uint256"
        }
      ],
      "name": "safeTransferFrom",
      "outputs": [],
      "stateMutability": "nonpayable",
      "type": "function"
    },
    {
      "inputs": [
        {
          "internalType": "address",
          "name": "from",
          "type": "address"
        },
        {
          "internalType": "address",
          "name": "to",
          "type": "address"
        },
        {
          "internalType": "uint256",
          "name": "tokenId",
          "type": "uint256"
        },
        {
          "internalType": "bytes",
          "name": "data",
          "type": "bytes"
        }
      ],
      "name": "safeTransferFrom",
      "outputs": [],
      "stateMutability": "nonpayable",
      "type": "function"
    },
    {
      "inputs": [],
      "name": "serverAccount",
      "outputs": [
        {
          "internalType": "address",
          "name": "",
          "type": "address"
        }
      ],
      "stateMutability": "view",
      "type": "function"
    },
    {
      "inputs": [
        {
          "internalType": "address",
          "name": "operator",
          "type": "address"
        },
        {
          "internalType": "bool",
          "name": "approved",
          "type": "bool"
        }
      ],
      "name": "setApprovalForAll",
      "outputs": [],
      "stateMutability": "nonpayable",
      "type": "function"
    },
    {
      "inputs": [
        {
          "internalType": "bytes4",
          "name": "interfaceId",
          "type": "bytes4"
        }
      ],
      "name": "supportsInterface",
      "outputs": [
        {
          "internalType": "bool",
          "name": "",
          "type": "bool"
        }
      ],
      "stateMutability": "view",
      "type": "function"
    },
    {
      "inputs": [],
      "name": "symbol",
      "outputs": [
        {
          "internalType": "string",
          "name": "",
          "type": "string"
        }
      ],
      "stateMutability": "view",
      "type": "function"
    },
    {
      "inputs": [
        {
          "internalType": "uint256",
          "name": "tokenId",
          "type": "uint256"
        }
      ],
      "name": "tokenURI",
      "outputs": [
        {
          "internalType": "string",
          "name": "",
          "type": "string"
        }
      ],
      "stateMutability": "view",
      "type": "function"
    },
    {
      "inputs": [
        {
          "internalType": "address",
          "name": "from",
          "type": "address"
        },
        {
          "internalType": "address",
          "name": "to",
          "type": "address"
        },
        {
          "internalType": "uint256",
          "name": "tokenId",
          "type": "uint256"
        }
      ],
      "name": "transferFrom",
      "outputs": [],
      "stateMutability": "nonpayable",
      "type": "function"
    },
    {
      "inputs": [
        {
          "internalType": "address",
          "name": "recipient",
          "type": "address"
        }
      ],
      "name": "mintToken",
      "outputs": [
        {
          "internalType": "uint256",
          "name": "",
          "type": "uint256"
        }
      ],
      "stateMutability": "nonpayable",
      "type": "function"
    },
    {
      "inputs": [
        {
          "internalType": "uint256",
          "name": "tokenId",
          "type": "uint256"
        },
        {
          "internalType": "address",
          "name": "claimedOwner",
          "type": "address"
        }
      ],
      "name": "verifyTokenOwner",
      "outputs": [
        {
          "internalType": "bool",
          "name": "",
          "type": "bool"
        }
      ],
      "stateMutability": "view",
      "type": "function"
    },
    {
      "inputs": [
        {
          "internalType": "uint256",
          "name": "tokenId",
          "type": "uint256"
        }
      ],
      "name": "transferToServer",
      "outputs": [],
      "stateMutability": "nonpayable",
      "type": "function"
    },
    {
      "inputs": [
        {
          "internalType": "uint256",
          "name": "tokenId",
          "type": "uint256"
        }
      ],
      "name": "burnToken",
      "outputs": [],
      "stateMutability": "nonpayable",
      "type": "function"
    }
  ],
  "bytecode": "0x608060405234801562000010575f80fd5b5060405162002ecf38038062002ecf833981810160405281019062000036919062000173565b6040518060400160405280600c81526020017f52657175657374546f6b656e00000000000000000000000000000000000000008152506040518060400160405280600481526020017f52544b4e00000000000000000000000000000000000000000000000000000000815250815f9081620000b2919062000407565b508060019081620000c4919062000407565b5050508060075f6101000a81548173ffffffffffffffffffffffffffffffffffffffff021916908373ffffffffffffffffffffffffffffffffffffffff16021790555050620004eb565b5f80fd5b5f73ffffffffffffffffffffffffffffffffffffffff82169050919050565b5f6200013d8262000112565b9050919050565b6200014f8162000131565b81146200015a575f80fd5b50565b5f815190506200016d8162000144565b92915050565b5f602082840312156200018b576200018a6200010e565b5b5f6200019a848285016200015d565b91505092915050565b5f81519050919050565b7f4e487b71000000000000000000000000000000000000000000000000000000005f52604160045260245ffd5b7f4e487b71000000000000000000000000000000000000000000000000000000005f52602260045260245ffd5b5f60028204905060018216806200021f57607f821691505b602082108103620002355762000234620001da565b5b50919050565b5f819050815f5260205f209050919050565b5f6020601f8301049050919050565b5f82821b905092915050565b5f60088302620002997fffffffffffffffffffffffffffffffffffffffffffffffffffffffffffffffff826200025c565b620002a586836200025c565b95508019841693508086168417925050509392505050565b5f819050919050565b5f819050919050565b5f620002ef620002e9620002e384620002bd565b620002c6565b620002bd565b9050919050565b5f819050919050565b6200030a83620002cf565b620003226200031982620002f6565b84845462000268565b825550505050565b5f90565b620003386200032a565b62000345818484620002ff565b505050565b5b818110156200036c57620003605f826200032e565b6001810190506200034b565b5050565b601f821115620003bb5762000385816200023b565b62000390846200024d565b81016020851015620003a0578190505b620003b8620003af856200024d565b8301826200034a565b50505b505050565b5f82821c905092915050565b5f620003dd5f1984600802620003c0565b1980831691505092915050565b5f620003f78383620003cc565b9150826002028217905092915050565b6200041282620001a3565b67ffffffffffffffff8111156200042e576200042d620001ad565b5b6200043a825462000207565b6200044782828562000370565b5f60209050601f8311600181146200047d575f841562000468578287015190505b620004748582620003ea565b865550620004e3565b601f1984166200048d866200023b565b5f5b82811015620004b6578489015182556001820191506020850194506020810190506200048f565b86831015620004d65784890151620004d2601f891682620003cc565b8355505b6001600288020188555050505b505050505050565b6129d680620004f95f395ff3fe608060405234801561000f575f80fd5b5060043610610114575f3560e01c806370a08231116100a0578063a22cb4651161006f578063a22cb46514610300578063b88d4fde1461031c578063c87b56dd14610338578063e985e9c514610368578063f46c4ec41461039857610114565b806370a082311461027a5780637b47ec1a146102aa57806395d89b41146102c657806397537815146102e457610114565b8063095ea7b3116100e7578063095ea7b3146101c657806323b872dd146101e25780633e724141146101fe57806342842e0e1461022e5780636352211e1461024a57610114565b806301173a741461011857806301ffc9a71461014857806306fdde0314610178578063081812fc14610196575b5f80fd5b610132600480360381019061012d9190611b84565b6103b6565b60405161013f9190611bc7565b60405180910390f35b610162600480360381019061015d9190611c35565b610470565b60405161016f9190611c7a565b60405180910390f35b610180610551565b60405161018d9190611d1d565b60405180910390f35b6101b060048036038101906101ab9190611d67565b6105e0565b6040516101bd9190611da1565b60405180910390f35b6101e060048036038101906101db9190611dba565b610622565b005b6101fc60048036038101906101f79190611df8565b610738565b005b61021860048036038101906102139190611e48565b610798565b6040516102259190611c7a565b60405180910390f35b61024860048036038101906102439190611df8565b6107d8565b005b610264600480360381019061025f9190611d67565b6107f7565b6040516102719190611da1565b60405180910390f35b610294600480360381019061028f9190611b84565b61087b565b6040516102a19190611bc7565b60405180910390f35b6102c460048036038101906102bf9190611d67565b61092f565b005b6102ce6109d2565b6040516102db9190611d1d565b60405180910390f35b6102fe60048036038101906102f99190611d67565b610a62565b005b61031a60048036038101906103159190611eb0565b610b07565b005b6103366004803603810190610331919061201a565b610b1d565b005b610352600480360381019061034d9190611d67565b610b7f565b60405161035f9190611d1d565b60405180910390f35b610382600480360381019061037d919061209a565b610be4565b60405161038f9190611c7a565b60405180910390f35b6103a0610c72565b6040516103ad9190611da1565b60405180910390f35b5f60075f9054906101000a900473ffffffffffffffffffffffffffffffffffffffff1673ffffffffffffffffffffffffffffffffffffffff163373ffffffffffffffffffffffffffffffffffffffff1614610446576040517f08c379a000000000000000000000000000000000000000000000000000000000815260040161043d90612122565b60405180910390fd5b6104506006610c97565b5f61045b6006610cab565b90506104678382610cb7565b80915050919050565b5f7f80ac58cd000000000000000000000000000000000000000000000000000000007bffffffffffffffffffffffffffffffffffffffffffffffffffffffff1916827bffffffffffffffffffffffffffffffffffffffffffffffffffffffff1916148061053a57507f5b5e139f000000000000000000000000000000000000000000000000000000007bffffffffffffffffffffffffffffffffffffffffffffffffffffffff1916827bffffffffffffffffffffffffffffffffffffffffffffffffffffffff1916145b8061054a575061054982610eca565b5b9050919050565b60605f805461055f9061216d565b80601f016020809104026020016040519081016040528092919081815260200182805461058b9061216d565b80156105d65780601f106105ad576101008083540402835291602001916105d6565b820191905f5260205f20905b8154815290600101906020018083116105b957829003601f168201915b5050505050905090565b5f6105ea82610f33565b60045f8381526020019081526020015f205f9054906101000a900473ffffffffffffffffffffffffffffffffffffffff169050919050565b5f61062c826107f7565b90508073ffffffffffffffffffffffffffffffffffffffff168373ffffffffffffffffffffffffffffffffffffffff160361069c576040517f08c379a00000000000000000000000000000000000000000000000000000000081526004016106939061220d565b60405180910390fd5b8073ffffffffffffffffffffffffffffffffffffffff166106bb610f7e565b73ffffffffffffffffffffffffffffffffffffffff1614806106ea57506106e9816106e4610f7e565b610be4565b5b610729576040517f08c379a00000000000000000000000000000000000000000000000000000000081526004016107209061229b565b60405180910390fd5b6107338383610f85565b505050565b610749610743610f7e565b8261103b565b610788576040517f08c379a000000000000000000000000000000000000000000000000000000000815260040161077f90612329565b60405180910390fd5b6107938383836110cf565b505050565b5f8173ffffffffffffffffffffffffffffffffffffffff166107b9846107f7565b73ffffffffffffffffffffffffffffffffffffffff1614905092915050565b6107f283838360405180602001604052805f815250610b1d565b505050565b5f80610802836113bb565b90505f73ffffffffffffffffffffffffffffffffffffffff168173ffffffffffffffffffffffffffffffffffffffff1603610872576040517f08c379a000000000000000000000000000000000000000000000000000000000815260040161086990612391565b60405180910390fd5b80915050919050565b5f8073ffffffffffffffffffffffffffffffffffffffff168273ffffffffffffffffffffffffffffffffffffffff16036108ea576040517f08c379a00000000000000000000000000000000000000000000000000000000081526004016108e19061241f565b60405180910390fd5b60035f8373ffffffffffffffffffffffffffffffffffffffff1673ffffffffffffffffffffffffffffffffffffffff1681526020019081526020015f20549050919050565b60075f9054906101000a900473ffffffffffffffffffffffffffffffffffffffff1673ffffffffffffffffffffffffffffffffffffffff16610970826107f7565b73ffffffffffffffffffffffffffffffffffffffff16146109c6576040517f08c379a00000000000000000000000000000000000000000000000000000000081526004016109bd906124ad565b60405180910390fd5b6109cf816113f4565b50565b6060600180546109e19061216d565b80601f0160208091040260200160405190810160405280929190818152602001828054610a0d9061216d565b8015610a585780601f10610a2f57610100808354040283529160200191610a58565b820191905f5260205f20905b815481529060010190602001808311610a3b57829003601f168201915b5050505050905090565b3373ffffffffffffffffffffffffffffffffffffffff16610a82826107f7565b73ffffffffffffffffffffffffffffffffffffffff1614610ad8576040517f08c379a0000000000000000000000000000000000000000000000000000000008152600401610acf9061253b565b60405180910390fd5b610b043360075f9054906101000a900473ffffffffffffffffffffffffffffffffffffffff16836110cf565b50565b610b19610b12610f7e565b8383611535565b5050565b610b2e610b28610f7e565b8361103b565b610b6d576040517f08c379a0000000000000000000000000000000000000000000000000000000008152600401610b6490612329565b60405180910390fd5b610b798484848461169c565b50505050565b6060610b8a82610f33565b5f610b936116f8565b90505f815111610bb15760405180602001604052805f815250610bdc565b80610bbb8461170e565b604051602001610bcc929190612593565b6040516020818303038152906040525b915050919050565b5f60055f8473ffffffffffffffffffffffffffffffffffffffff1673ffffffffffffffffffffffffffffffffffffffff1681526020019081526020015f205f8373ffffffffffffffffffffffffffffffffffffffff1673ffffffffffffffffffffffffffffffffffffffff1681526020019081526020015f205f9054906101000a900460ff16905092915050565b60075f9054906101000a900473ffffffffffffffffffffffffffffffffffffffff1681565b6001815f015f828254019250508190555050565b5f815f01549050919050565b5f73ffffffffffffffffffffffffffffffffffffffff168273ffffffffffffffffffffffffffffffffffffffff1603610d25576040517f08c379a0000000000000000000000000000000000000000000000000000000008152600401610d1c90612600565b60405180910390fd5b610d2e816117d8565b15610d6e576040517f08c379a0000000000000000000000000000000000000000000000000000000008152600401610d6590612668565b60405180910390fd5b610d7b5f83836001611818565b610d84816117d8565b15610dc4576040517f08c379a0000000000000000000000000000000000000000000000000000000008152600401610dbb90612668565b60405180910390fd5b600160035f8473ffffffffffffffffffffffffffffffffffffffff1673ffffffffffffffffffffffffffffffffffffffff1681526020019081526020015f205f82825401925050819055508160025f8381526020019081526020015f205f6101000a81548173ffffffffffffffffffffffffffffffffffffffff021916908373ffffffffffffffffffffffffffffffffffffffff160217905550808273ffffffffffffffffffffffffffffffffffffffff165f73ffffffffffffffffffffffffffffffffffffffff167fddf252ad1be2c89b69c2b068fc378daa952ba7f163c4a11628f55a4df523b3ef60405160405180910390a4610ec65f8383600161181e565b5050565b5f7f01ffc9a7000000000000000000000000000000000000000000000000000000007bffffffffffffffffffffffffffffffffffffffffffffffffffffffff1916827bffffffffffffffffffffffffffffffffffffffffffffffffffffffff1916149050919050565b610f3c816117d8565b610f7b576040517f08c379a0000000000000000000000000000000000000000000000000000000008152600401610f7290612391565b60405180910390fd5b50565b5f33905090565b8160045f8381526020019081526020015f205f6101000a81548173ffffffffffffffffffffffffffffffffffffffff021916908373ffffffffffffffffffffffffffffffffffffffff160217905550808273ffffffffffffffffffffffffffffffffffffffff16610ff5836107f7565b73ffffffffffffffffffffffffffffffffffffffff167f8c5be1e5ebec7d5bd14f71427d1e84f3dd0314c0f7b2291e5b200ac8c7c3b92560405160405180910390a45050565b5f80611046836107f7565b90508073ffffffffffffffffffffffffffffffffffffffff168473ffffffffffffffffffffffffffffffffffffffff16148061108857506110878185610be4565b5b806110c657508373ffffffffffffffffffffffffffffffffffffffff166110ae846105e0565b73ffffffffffffffffffffffffffffffffffffffff16145b91505092915050565b8273ffffffffffffffffffffffffffffffffffffffff166110ef826107f7565b73ffffffffffffffffffffffffffffffffffffffff1614611145576040517f08c379a000000000000000000000000000000000000000000000000000000000815260040161113c906126f6565b60405180910390fd5b5f73ffffffffffffffffffffffffffffffffffffffff168273ffffffffffffffffffffffffffffffffffffffff16036111b3576040517f08c379a00000000000000000000000000000000000000000000000000000000081526004016111aa90612784565b60405180910390fd5b6111c08383836001611818565b8273ffffffffffffffffffffffffffffffffffffffff166111e0826107f7565b73ffffffffffffffffffffffffffffffffffffffff1614611236576040517f08c379a000000000000000000000000000000000000000000000000000000000815260040161122d906126f6565b60405180910390fd5b60045f8281526020019081526020015f205f6101000a81549073ffffffffffffffffffffffffffffffffffffffff0219169055600160035f8573ffffffffffffffffffffffffffffffffffffffff1673ffffffffffffffffffffffffffffffffffffffff1681526020019081526020015f205f8282540392505081905550600160035f8473ffffffffffffffffffffffffffffffffffffffff1673ffffffffffffffffffffffffffffffffffffffff1681526020019081526020015f205f82825401925050819055508160025f8381526020019081526020015f205f6101000a81548173ffffffffffffffffffffffffffffffffffffffff021916908373ffffffffffffffffffffffffffffffffffffffff160217905550808273ffffffffffffffffffffffffffffffffffffffff168473ffffffffffffffffffffffffffffffffffffffff167fddf252ad1be2c89b69c2b068fc378daa952ba7f163c4a11628f55a4df523b3ef60405160405180910390a46113b6838383600161181e565b505050565b5f60025f8381526020019081526020015f205f9054906101000a900473ffffffffffffffffffffffffffffffffffffffff169050919050565b5f6113fe826107f7565b905061140d815f846001611818565b611416826107f7565b905060045f8381526020019081526020015f205f6101000a81549073ffffffffffffffffffffffffffffffffffffffff0219169055600160035f8373ffffffffffffffffffffffffffffffffffffffff1673ffffffffffffffffffffffffffffffffffffffff1681526020019081526020015f205f828254039250508190555060025f8381526020019081526020015f205f6101000a81549073ffffffffffffffffffffffffffffffffffffffff0219169055815f73ffffffffffffffffffffffffffffffffffffffff168273ffffffffffffffffffffffffffffffffffffffff167fddf252ad1be2c89b69c2b068fc378daa952ba7f163c4a11628f55a4df523b3ef60405160405180910390a4611531815f84600161181e565b5050565b8173ffffffffffffffffffffffffffffffffffffffff168373ffffffffffffffffffffffffffffffffffffffff16036115a3576040517f08c379a000000000000000000000000000000000000000000000000000000000815260040161159a906127ec565b60405180910390fd5b8060055f8573ffffffffffffffffffffffffffffffffffffffff1673ffffffffffffffffffffffffffffffffffffffff1681526020019081526020015f205f8473ffffffffffffffffffffffffffffffffffffffff1673ffffffffffffffffffffffffffffffffffffffff1681526020019081526020015f205f6101000a81548160ff0219169083151502179055508173ffffffffffffffffffffffffffffffffffffffff168373ffffffffffffffffffffffffffffffffffffffff167f17307eab39ab6107e8899845ad3d59bd9653f200f220920489ca2b5937696c318360405161168f9190611c7a565b60405180910390a3505050565b6116a78484846110cf565b6116b384848484611824565b6116f2576040517f08c379a00000000000000000000000000000000000000000000000000000000081526004016116e99061287a565b60405180910390fd5b50505050565b606060405180602001604052805f815250905090565b60605f600161171c846119a6565b0190505f8167ffffffffffffffff81111561173a57611739611ef6565b5b6040519080825280601f01601f19166020018201604052801561176c5781602001600182028036833780820191505090505b5090505f82602001820190505b6001156117cd578080600190039150507f3031323334353637383961626364656600000000000000000000000000000000600a86061a8153600a85816117c2576117c1612898565b5b0494505f8503611779575b819350505050919050565b5f8073ffffffffffffffffffffffffffffffffffffffff166117f9836113bb565b73ffffffffffffffffffffffffffffffffffffffff1614159050919050565b50505050565b50505050565b5f6118448473ffffffffffffffffffffffffffffffffffffffff16611af7565b15611999578373ffffffffffffffffffffffffffffffffffffffff1663150b7a0261186d610f7e565b8786866040518563ffffffff1660e01b815260040161188f9493929190612917565b6020604051808303815f875af19250505080156118ca57506040513d601f19601f820116820180604052508101906118c79190612975565b60015b611949573d805f81146118f8576040519150601f19603f3d011682016040523d82523d5f602084013e6118fd565b606091505b505f815103611941576040517f08c379a00000000000000000000000000000000000000000000000000000000081526004016119389061287a565b60405180910390fd5b805181602001fd5b63150b7a0260e01b7bffffffffffffffffffffffffffffffffffffffffffffffffffffffff1916817bffffffffffffffffffffffffffffffffffffffffffffffffffffffff19161491505061199e565b600190505b949350505050565b5f805f90507a184f03e93ff9f4daa797ed6e38ed64bf6a1f0100000000000000008310611a02577a184f03e93ff9f4daa797ed6e38ed64bf6a1f01000000000000000083816119f8576119f7612898565b5b0492506040810190505b6d04ee2d6d415b85acef81000000008310611a3f576d04ee2d6d415b85acef81000000008381611a3557611a34612898565b5b0492506020810190505b662386f26fc100008310611a6e57662386f26fc100008381611a6457611a63612898565b5b0492506010810190505b6305f5e1008310611a97576305f5e1008381611a8d57611a8c612898565b5b0492506008810190505b6127108310611abc576127108381611ab257611ab1612898565b5b0492506004810190505b60648310611adf5760648381611ad557611ad4612898565b5b0492506002810190505b600a8310611aee576001810190505b80915050919050565b5f808273ffffffffffffffffffffffffffffffffffffffff163b119050919050565b5f604051905090565b5f80fd5b5f80fd5b5f73ffffffffffffffffffffffffffffffffffffffff82169050919050565b5f611b5382611b2a565b9050919050565b611b6381611b49565b8114611b6d575f80fd5b50565b5f81359050611b7e81611b5a565b92915050565b5f60208284031215611b9957611b98611b22565b5b5f611ba684828501611b70565b91505092915050565b5f819050919050565b611bc181611baf565b82525050565b5f602082019050611bda5f830184611bb8565b92915050565b5f7fffffffff0000000000000000000000000000000000000000000000000000000082169050919050565b611c1481611be0565b8114611c1e575f80fd5b50565b5f81359050611c2f81611c0b565b92915050565b5f60208284031215611c4a57611c49611b22565b5b5f611c5784828501611c21565b91505092915050565b5f8115159050919050565b611c7481611c60565b82525050565b5f602082019050611c8d5f830184611c6b565b92915050565b5f81519050919050565b5f82825260208201905092915050565b5f5b83811015611cca578082015181840152602081019050611caf565b5f8484015250505050565b5f601f19601f8301169050919050565b5f611cef82611c93565b611cf98185611c9d565b9350611d09818560208601611cad565b611d1281611cd5565b840191505092915050565b5f6020820190508181035f830152611d358184611ce5565b905092915050565b611d4681611baf565b8114611d50575f80fd5b50565b5f81359050611d6181611d3d565b92915050565b5f60208284031215611d7c57611d7b611b22565b5b5f611d8984828501611d53565b91505092915050565b611d9b81611b49565b82525050565b5f602082019050611db45f830184611d92565b92915050565b5f8060408385031215611dd057611dcf611b22565b5b5f611ddd85828601611b70565b9250506020611dee85828601611d53565b9150509250929050565b5f805f60608486031215611e0f57611e0e611b22565b5b5f611e1c86828701611b70565b9350506020611e2d86828701611b70565b9250506040611e3e86828701611d53565b9150509250925092565b5f8060408385031215611e5e57611e5d611b22565b5b5f611e6b85828601611d53565b9250506020611e7c85828601611b70565b9150509250929050565b611e8f81611c60565b8114611e99575f80fd5b50565b5f81359050611eaa81611e86565b92915050565b5f8060408385031215611ec657611ec5611b22565b5b5f611ed385828601611b70565b9250506020611ee485828601611e9c565b9150509250929050565b5f80fd5b5f80fd5b7f4e487b71000000000000000000000000000000000000000000000000000000005f52604160045260245ffd5b611f2c82611cd5565b810181811067ffffffffffffffff82111715611f4b57611f4a611ef6565b5b80604052505050565b5f611f5d611b19565b9050611f698282611f23565b919050565b5f67ffffffffffffffff821115611f8857611f87611ef6565b5b611f9182611cd5565b9050602081019050919050565b828183375f83830152505050565b5f611fbe611fb984611f6e565b611f54565b905082815260208101848484011115611fda57611fd9611ef2565b5b611fe5848285611f9e565b509392505050565b5f82601f83011261200157612000611eee565b5b8135612011848260208601611fac565b91505092915050565b5f805f806080858703121561203257612031611b22565b5b5f61203f87828801611b70565b945050602061205087828801611b70565b935050604061206187828801611d53565b925050606085013567ffffffffffffffff81111561208257612081611b26565b5b61208e87828801611fed565b91505092959194509250565b5f80604083850312156120b0576120af611b22565b5b5f6120bd85828601611b70565b92505060206120ce85828601611b70565b9150509250929050565b7f4f6e6c79207365727665722063616e206d696e7420746f6b656e7300000000005f82015250565b5f61210c601b83611c9d565b9150612117826120d8565b602082019050919050565b5f6020820190508181035f83015261213981612100565b9050919050565b7f4e487b71000000000000000000000000000000000000000000000000000000005f52602260045260245ffd5b5f600282049050600182168061218457607f821691505b60208210810361219757612196612140565b5b50919050565b7f4552433732313a20617070726f76616c20746f2063757272656e74206f776e655f8201527f7200000000000000000000000000000000000000000000000000000000000000602082015250565b5f6121f7602183611c9d565b91506122028261219d565b604082019050919050565b5f6020820190508181035f830152612224816121eb565b9050919050565b7f4552433732313a20617070726f76652063616c6c6572206973206e6f7420746f5f8201527f6b656e206f776e6572206f7220617070726f76656420666f7220616c6c000000602082015250565b5f612285603d83611c9d565b91506122908261222b565b604082019050919050565b5f6020820190508181035f8301526122b281612279565b9050919050565b7f4552433732313a2063616c6c6572206973206e6f7420746f6b656e206f776e655f8201527f72206f7220617070726f76656400000000000000000000000000000000000000602082015250565b5f612313602d83611c9d565b915061231e826122b9565b604082019050919050565b5f6020820190508181035f83015261234081612307565b9050919050565b7f4552433732313a20696e76616c696420746f6b656e20494400000000000000005f82015250565b5f61237b601883611c9d565b915061238682612347565b602082019050919050565b5f6020820190508181035f8301526123a88161236f565b9050919050565b7f4552433732313a2061646472657373207a65726f206973206e6f7420612076615f8201527f6c6964206f776e65720000000000000000000000000000000000000000000000602082015250565b5f612409602983611c9d565b9150612414826123af565b604082019050919050565b5f6020820190508181035f830152612436816123fd565b9050919050565b7f4f6e6c7920746865207365727665722063616e206275726e2074686520746f6b5f8201527f656e000000000000000000000000000000000000000000000000000000000000602082015250565b5f612497602283611c9d565b91506124a28261243d565b604082019050919050565b5f6020820190508181035f8301526124c48161248b565b9050919050565b7f4f6e6c7920746865206f776e65722063616e207472616e7366657220746865205f8201527f746f6b656e000000000000000000000000000000000000000000000000000000602082015250565b5f612525602583611c9d565b9150612530826124cb565b604082019050919050565b5f6020820190508181035f83015261255281612519565b9050919050565b5f81905092915050565b5f61256d82611c93565b6125778185612559565b9350612587818560208601611cad565b80840191505092915050565b5f61259e8285612563565b91506125aa8284612563565b91508190509392505050565b7f4552433732313a206d696e7420746f20746865207a65726f20616464726573735f82015250565b5f6125ea602083611c9d565b91506125f5826125b6565b602082019050919050565b5f6020820190508181035f830152612617816125de565b9050919050565b7f4552433732313a20746f6b656e20616c7265616479206d696e746564000000005f82015250565b5f612652601c83611c9d565b915061265d8261261e565b602082019050919050565b5f6020820190508181035f83015261267f81612646565b9050919050565b7f4552433732313a207472616e736665722066726f6d20696e636f7272656374205f8201527f6f776e6572000000000000000000000000000000000000000000000000000000602082015250565b5f6126e0602583611c9d565b91506126eb82612686565b604082019050919050565b5f6020820190508181035f83015261270d816126d4565b9050919050565b7f4552433732313a207472616e7366657220746f20746865207a65726f206164645f8201527f7265737300000000000000000000000000000000000000000000000000000000602082015250565b5f61276e602483611c9d565b915061277982612714565b604082019050919050565b5f6020820190508181035f83015261279b81612762565b9050919050565b7f4552433732313a20617070726f766520746f2063616c6c6572000000000000005f82015250565b5f6127d6601983611c9d565b91506127e1826127a2565b602082019050919050565b5f6020820190508181035f830152612803816127ca565b9050919050565b7f4552433732313a207472616e7366657220746f206e6f6e2045524337323152655f8201527f63656976657220696d706c656d656e7465720000000000000000000000000000602082015250565b5f612864603283611c9d565b915061286f8261280a565b604082019050919050565b5f6020820190508181035f83015261289181612858565b9050919050565b7f4e487b71000000000000000000000000000000000000000000000000000000005f52601260045260245ffd5b5f81519050919050565b5f82825260208201905092915050565b5f6128e9826128c5565b6128f381856128cf565b9350612903818560208601611cad565b61290c81611cd5565b840191505092915050565b5f60808201905061292a5f830187611d92565b6129376020830186611d92565b6129446040830185611bb8565b818103606083015261295681846128df565b905095945050505050565b5f8151905061296f81611c0b565b92915050565b5f6020828403121561298a57612989611b22565b5b5f61299784828501612961565b9150509291505056fea2646970667358221220b90799f63ff5a9262ba9579394850dd00d9a19111a2fb36727afe8546c0cd50064736f6c63430008150033",
  "immutableReferences": {},
  "source": "// SPDX-License-Identifier: MIT\r\npragma solidity ^0.8.0;\r\n\r\nimport \"@openzeppelin/contracts/token/ERC721/ERC721.sol\";\r\nimport \"@openzeppelin/contracts/utils/Counters.sol\";\r\n\r\ncontract RequestToken is ERC721 {\r\n    using Counters for Counters.Counter;\r\n    Counters.Counter private _tokenIds;\r\n    address public serverAccount;\r\n\r\n    constructor(address _serverAccount) ERC721(\"RequestToken\", \"RTKN\") {\r\n        serverAccount = _serverAccount;\r\n    }\r\n\r\n    function mintToken(address recipient) public returns (uint256) {\r\n        require(msg.sender == serverAccount, \"Only server can mint tokens\");\r\n        _tokenIds.increment();\r\n        uint256 newTokenId = _tokenIds.current();\r\n        _mint(recipient, newTokenId);\r\n        return newTokenId;\r\n    }\r\n\r\n    function verifyTokenOwner(uint256 tokenId, address claimedOwner) public view returns (bool) {\r\n        return ownerOf(tokenId) == claimedOwner;\r\n    }\r\n\r\n    function transferToServer(uint256 tokenId) public {\r\n        require(ownerOf(tokenId) == msg.sender, \"Only the owner can transfer the token\");\r\n        _transfer(msg.sender, serverAccount, tokenId);\r\n    }\r\n\r\n    function burnToken(uint256 tokenId) public {\r\n        require(ownerOf(tokenId) == serverAccount, \"Only the server can burn the token\");\r\n        _burn(tokenId);\r\n    }\r\n}\r\n",
  "sourcePath": "E:\\OneDrive\\Second Year\\semester 2\\Research\\Application Development\\Authenticaion server\\nexasecure-server\\auth-blockchain\\contracts\\RequestToken.sol",
  "compiler": {
    "name": "solc",
    "version": "0.8.21+commit.d9974bed.Emscripten.clang"
  },
  "schemaVersion": "3.4.16",
  "updatedAt": "2024-07-14T15:41:25.004Z",
  "networkType": "ethereum",
  "devdoc": {
    "events": {
      "Approval(address,address,uint256)": {
        "details": "Emitted when `owner` enables `approved` to manage the `tokenId` token."
      },
      "ApprovalForAll(address,address,bool)": {
        "details": "Emitted when `owner` enables or disables (`approved`) `operator` to manage all of its assets."
      },
      "Transfer(address,address,uint256)": {
        "details": "Emitted when `tokenId` token is transferred from `from` to `to`."
      }
    },
    "kind": "dev",
    "methods": {
      "approve(address,uint256)": {
        "details": "See {IERC721-approve}."
      },
      "balanceOf(address)": {
        "details": "See {IERC721-balanceOf}."
      },
      "getApproved(uint256)": {
        "details": "See {IERC721-getApproved}."
      },
      "isApprovedForAll(address,address)": {
        "details": "See {IERC721-isApprovedForAll}."
      },
      "name()": {
        "details": "See {IERC721Metadata-name}."
      },
      "ownerOf(uint256)": {
        "details": "See {IERC721-ownerOf}."
      },
      "safeTransferFrom(address,address,uint256)": {
        "details": "See {IERC721-safeTransferFrom}."
      },
      "safeTransferFrom(address,address,uint256,bytes)": {
        "details": "See {IERC721-safeTransferFrom}."
      },
      "setApprovalForAll(address,bool)": {
        "details": "See {IERC721-setApprovalForAll}."
      },
      "supportsInterface(bytes4)": {
        "details": "See {IERC165-supportsInterface}."
      },
      "symbol()": {
        "details": "See {IERC721Metadata-symbol}."
      },
      "tokenURI(uint256)": {
        "details": "See {IERC721Metadata-tokenURI}."
      },
      "transferFrom(address,address,uint256)": {
        "details": "See {IERC721-transferFrom}."
      }
    },
    "version": 1
  },
  "userdoc": {
    "kind": "user",
    "methods": {},
    "version": 1
  }
}